:020000040800F2
:1000000000900020291B0008790500087B050008E6
:1000100000000000000000000000000000000000E0
:100020000000000000000000000000007D05000846
:1000300000000000000000007F05000881050008A6
:10004000791B000800000000791B0008791B0008DC
:10005000791B0008791B0008791B0008791B000830
:1000600000000000791B0008791B0008791B0008BC
:10007000791B0008791B0008791B000800000000AC
:10008000791B0008791B0008791B0008791B000800
:10009000791B0008791B0008791B0008791B0008F0
:1000A000791B0008791B0008791B0008791B0008E0
:0800B000791B0008791B000810
:1000B80010B5064C2378002B07D1054B002B02D036
:1000C800044800E000BF0123237010BD0C0000208D
:1000D80000000000D41B0008044B10B5002B03D00F
:1000E8000349044800E000BF10BDC04600000000FE
:1000F80010000020D41B0008002243088B4274D350
:1001080003098B425FD3030A8B4244D3030B8B4210
:1001180028D3030C8B420DD3FF22090212BA030C19
:100128008B4202D31212090265D0030B8B4219D3FA
:1001380000E0090AC30B8B4201D3CB03C01A52411A
:10014800830B8B4201D38B03C01A5241430B8B4262
:1001580001D34B03C01A5241030B8B4201D30B034B
:10016800C01A5241C30A8B4201D3CB02C01A524172
:10017800830A8B4201D38B02C01A5241430A8B4235
:1001880001D34B02C01A5241030A8B4201D30B021E
:10019800C01A5241CDD2C3098B4201D3CB01C01A38
:1001A800524183098B4201D38B01C01A5241430942
:1001B8008B4201D34B01C01A524103098B4201D330
:1001C8000B01C01A5241C3088B4201D3CB00C01A9D
:1001D800524183088B4201D38B00C01A5241430815
:1001E8008B4201D34B00C01A5241411A00D201463A
:1001F800524110467047FFE701B5002000F0F0F8C3
:1002080002BDC0460029F7D076E7704703460B4386
:100218007FD4002243088B4274D303098B425FD3F7
:10022800030A8B4244D3030B8B4228D3030C8B4223
:100238000DD3FF22090212BA030C8B4202D3121209
:10024800090265D0030B8B4219D300E0090AC30BDE
:100258008B4201D3CB03C01A5241830B8B4201D38B
:100268008B03C01A5241430B8B4201D34B03C01A74
:100278005241030B8B4201D30B03C01A5241C30AEC
:100288008B4201D3CB02C01A5241830A8B4201D35D
:100298008B02C01A5241430A8B4201D34B02C01A47
:1002A8005241030A8B4201D30B02C01A5241CDD2EC
:1002B800C3098B4201D3CB01C01A524183098B4237
:1002C80001D38B01C01A524143098B4201D34B0120
:1002D800C01A524103098B4201D30B01C01A524183
:1002E800C3088B4201D3CB00C01A524183088B420A
:1002F80001D38B00C01A524143088B4201D34B00F3
:10030800C01A5241411A00D2014652411046704764
:100318005DE0CA0F00D04942031000D34042534069
:1003280000229C4603098B422DD3030A8B4212D329
:10033800FC22890112BA030A8B420CD3890192115B
:100348008B4208D3890192118B4204D389013AD098
:10035800921100E08909C3098B4201D3CB01C01A6D
:10036800524183098B4201D38B01C01A5241430980
:100378008B4201D34B01C01A524103098B4201D36E
:100388000B01C01A5241C3088B4201D3CB00C01ADB
:10039800524183088B4201D38B00C01A5241D9D2F3
:1003A80043088B4201D34B00C01A5241411A00D274
:1003B8000146634652415B10104601D34042002B70
:1003C80000D54942704763465B1000D3404201B5EF
:1003D800002000F005F802BD0029F8D016E77047A4
:1003E8007047C04630B599B0342200210BA801F0FF
:1003F800E5FB1022002107A801F0E0FB1C220021E8
:10040800684601F0DBFB8020800001F0B7FA022586
:100418000B9580235B000E9300240F94C03B109330
:1004280012940BA800F052FE07230793089409942E
:100438000A94002107A801F0FBF800950294684689
:1004480001F0D6F919B030BD10B501F03BFBFFF74C
:10045800C9FF00F005F800F021F8FEE7704700003A
:1004680084B00D4B596B042211435963596B0A40F0
:100478000192019A596B202211435963596B0A4022
:100488000292029A596B0122114359635B6B1A401D
:100498000392039B04B070470010024010B51A483D
:1004A8001A4B0360E1235B02436080235B05836092
:1004B8000023C36003610C2242618361C36103624C
:1004C8004362836200F02EFD002811D100210E48FE
:1004D80000F0B2FD00280ED100210B4800F0D0FD3D
:1004E80000280BD1084800F087FD002809D110BD6D
:1004F800FFF7B4FFEAE7FFF7B1FFEDE7FFF7AEFF5D
:10050800F0E7FFF7ABFFF2E72800002000440040C7
:1005180010B588B004001422002103A801F04EFB96
:100528002268114B9A4201D008B010BD0F4BD96B0D
:10053800802080020143D963DA6B02400192019A5C
:10054800596B0122114359635B6B13400293029B61
:100558000C2303930A3B04930792A02003A9C00528
:1005680000F026F8E0E7C0460044004000100240D2
:100578007047FEE77047704710B501F0B7FA10BD35
:1005880082B00A4B196C012211431964196C0A4094
:100598000092009ADA6B802149050A43DA63DB6B23
:1005A8000B400193019B02B07047C0460010024007
:1005B800F0B5C64600B500233BE0032600E0002660
:1005C800AE4035003D43534E1834A400A551802455
:1005D80035594246D4432E0026404A68D20302D5F4
:1005E800424615432E004B4D8027EE518426AD59C7
:1005F8002E0026404A68920302D5424615432E0033
:10060800444D8427EE512D682E0026404A68D202B8
:1006180002D5424615432E003E4D2E606D682C4093
:100628004A68920202D542462A431400394A546065
:1006380001330A681400DC4069D001259D402A4036
:100648009046F5D04C68022C01D0122C0ED1DC0853
:100658000834A400275807261E40B6000F22B240CF
:1006680097430A69B24016003E43265002685F006D
:1006780003242600BE40F643324094464A6814409C
:10068800BC406246144304604C68621E012A03D9C8
:10069800112C01D0122C10D184683440A446CC68A7
:1006A800BC406246144384604468AC434A681209FB
:1006B800012515409D4025434560C46826408C6847
:1006C800BC403443C4604A68D200B1D59C082500B8
:1006D8001835AD000F4EAF5903251D40ED000F260C
:1006E800AE40B743A026F605B04200D167E70A4EF0
:1006F800B04208D0094EB04207D0094EB04200D1EE
:100708005BE705265CE701265AE7022658E704BCA2
:100718009046F0BD00180240000400500008005048
:10072800000C005070B504008368026913434269E5
:100738001343C2691343426E1A4301680B68AC48FD
:10074800034013430B6022685368AA490B40E168D1
:100758000B435360226AA3691A4321688B68A64831
:10076800034013438B602268D36A0F218B43616A6D
:100778000B43D3622368A14A93420AD0A04A93420A
:100788004CD0A04A93426CD09F4A93425BD010252C
:100798000CE09E4B5A6D03231340012B55D0002BC0
:1007A80055D0022B55D0032B55D01025E069802356
:1007B8001B02984257D0022D00D105E200D8AAE1C9
:1007C800042D00D13CE2082D00D0D7E1636A002B4C
:1007D80000D178E2012B00D181E2022B00D181E225
:1007E800032B00D181E2042B00D180E2052B00D13C
:1007F80080E2062B00D17FE2072B00D17EE2082B96
:1008080000D17EE2092B00D17EE20A2B00D17EE2E4
:100818000B2B00D155E28020000256E27B4B5A6D2B
:100828000C231340042B18D005D9082B17D00C2BF8
:1008380007D10825BAE7002B01D10025B6E7102516
:10084800B4E71025B2E70025B0E70425AEE7002598
:10085800ACE70225AAE70825A8E70425A6E70225AC
:10086800A4E70025A2E7022D00D185E02CD9042DAC
:1008780000D1E7E0082D58D1636A002B00D126E1AA
:10088800012B00D125E1022B00D12CE1032B00D153
:100898002CE1042B00D12BE1052B00D12BE1062BF9
:1008A80000D12AE1072B00D129E1082B00D129E149
:1008B800092B00D129E10A2B00D129E10B2B00D10A
:1008C80002E18020400204E1002D1CD100F07CFFF1
:1008D800636A002B2FD0012B3AD0022B3AD0032B7E
:1008E8003AD0042B3AD0052B3AD0062B3AD0072B16
:1008F8003AD0082B3AD0092B3AD00A2B3AD00B2BF6
:1009080016D0012118E001250020414A0300103BC0
:10091800934200D9FEE10F2302009A434008083BA6
:10092800184010432368D8601EE101250020ECE739
:100938008021490000E00121FFF7DEFB40006368E9
:100948005B08C0186168FFF7D7FB0004000CDCE700
:100958000221F1E70421EFE70621EDE70821EBE7A3
:100968000A21E9E70C21E7E71021E5E72021E3E781
:100978004021E1E78021DFE7636A002B19D0012BD2
:1009880022D0022B22D0032B22D0042B22D0052BDD
:1009980022D0062B22D0072B22D0082B22D0092BBD
:1009A80022D00A2B22D00B2B01D01A4802E01A4879
:1009B80000E0184863685B08C0186168FFF79CFB93
:1009C8000004000C0025A0E71448F3E71448F1E7F9
:1009D8001448EFE71448EDE71448EBE71448E9E753
:1009E8001448E7E71448E5E71448E3E71448E1E763
:1009F800F369FFCFFFCFFFFFFFF4FF11003801407D
:100A08000044004000480040004C004000100240F4
:100A1800EFFF00000048E80148E801000024F40066
:100A280000127A005461510000093D0000D43000E2
:100A3800AAB0280080841E0040420F0020A10700B1
:100A480090D0030000F098FD636A002B1AD0012BA8
:100A580026D0022B26D0032B26D0042B26D0052BFC
:100A680026D0062B26D0072B26D0082B26D0092BDC
:100A780026D00A2B26D00B2B01D0012103E08021A0
:100A8800490000E00121FFF737FB400063685B087D
:100A9800C0186168FFF730FB0004000C002534E73C
:100AA8000221F0E70421EEE70621ECE70821EAE756
:100AB8000A21E8E70C21E6E71021E4E72021E2E734
:100AC8004021E0E78021DEE78020400001E080202F
:100AD800400263685B08C0186168FFF70DFB0004FB
:100AE800000C002511E78020C001F2E78B48F0E7F1
:100AF80080208001EDE78A48EBE78A48E9E7802013
:100B08004001E6E780200001E3E78020C000E0E73D
:100B180080208000DDE7002D1CD100F055FE636ABF
:100B2800002B31D0012B3BD0022B3BD0032B3BD0E9
:100B3800042B3BD0052B3BD0062B3BD0072B3BD0BF
:100B4800082B3BD0092B3BD00A2B3BD00B2B18D0C2
:100B580001211AE001250020734A0300103B93424B
:100B680000D9D9E02368D86001236A22A352023A47
:100B7800A3520023E3662367280070BD01250020E7
:100B8800EAE78021490000E00121FFF7B5FA636830
:100B98005B08C0186168FFF7AFFA0004000CDBE7D8
:100BA8000221F2E70421F0E70621EEE70821ECE74D
:100BB8000A21EAE70C21E8E71021E6E72021E4E72B
:100BC8004021E2E78021E0E7636A002B19D0012B7E
:100BD80022D0022B22D0032B22D0042B22D0052B8B
:100BE80022D0062B22D0072B22D0082B22D0092B6B
:100BF80022D00A2B22D00B2B01D04C4802E04C48C3
:100C080000E04A4863685B08C0186168FFF774FA37
:100C18000004000C00259FE74648F3E74648F1E743
:100C28004648EFE74648EDE74648EBE74648E9E738
:100C38004648E7E74648E5E74648E3E74648E1E748
:100C480000F09AFC636A002B1AD0012B25D0022BE6
:100C580025D0032B25D0042B25D0052B25D0062BFA
:100C680025D0072B25D0082B25D0092B25D00A2BDA
:100C780025D00B2B01D0012103E08021490000E0A1
:100C88000121FFF739FA63685B08C0186168FFF74C
:100C980033FA0004000C00255EE70221F1E7042185
:100CA800EFE70621EDE70821EBE70A21E9E70C2148
:100CB800E7E71021E5E72021E3E74021E1E780218C
:100CC800DFE7802001E08020000263685B08C0182D
:100CD8006168FFF711FA0004000C00253CE780204A
:100CE800C001F2E780208001EFE71C48EDE7802093
:100CF8004001EAE71A48E8E71A48E6E780200001D9
:100D0800E3E78020C000E0E780208000DDE7802066
:100D18004000DAE7012527E7012525E7AA2A000090
:100D28009819000054150000EFFF00000024F4009B
:100D380024F4000000127A0000093D00AAB028003F
:100D480080841E00006A18005558140040420F00A5
:100D580020A1070090D0030048E8010055150000C5
:100D6800CC0C0000AA0A0000836ADB0706D50268DB
:100D780053682C490B40C16A0B435360836A9B0735
:100D880006D50268536828490B40016B0B43536032
:100D9800836A5B0706D50268536824490B40416B98
:100DA8000B435360836A1B0706D5026853682049C2
:100DB8000B40816B0B435360836ADB0606D50268E0
:100DC80093681C490B40C16B0B439360836A9B0675
:100DD80006D50268936818490B40016C0B43936071
:100DE800836A5B060BD50268536814490B40416C53
:100DF8000B43536080235B03426C9A420AD0836A98
:100E08001B0606D5026853680D490B40C16C0B439D
:100E180053607047026853680A490B40816C0B4362
:100E28005360ECE7FFFFFDFFFFFFFEFFFFFFFBFF47
:100E3800FF7FFFFFFFEFFFFFFFDFFFFFFFFFEFFF7A
:100E4800FFFFF7FFFFFF9FFFF0B5C64600B506009E
:100E58000C0017009846069D3368DB6923401B1B6E
:100E68005A425341BB421ED16B1CF5D000F04AFEDA
:100E78004346C01AA84201D8002DEDD13268136844
:100E88000B490B40136032689368A331FF318B43E1
:100E9800936020238022B3500432B3505C33002285
:100EA800F254032000E0002004BC9046F0BDC04688
:100EB8005FFEFFFF30B583B0040088230022C250D4
:100EC80000F020FE050023681B681B070ED423686A
:100ED8001B685B0717D420238022A3500432A35039
:100EE8005C330022E254002003B030BD80210C4B5B
:100EF80000930300002289032000FFF7A5FF0028C4
:100F0800E5D00320F0E78021054B00932B00002259
:100F1800C9032000FFF798FF0028DCD00320E3E78F
:100F2800FFFFFF0110B5041E30D08023C358002BEB
:100F380022D080232422E2502268136801218B43A7
:100F480013602000FFF7EEFB012814D0A36A002BE2
:100F580018D1226853680E490B4053602268936881
:100F68002A218B4393602268136829390B43136045
:100F78002000FFF79FFF10BD7C330022C254FFF70B
:100F8800C7FAD6E72000FFF7EFFEE2E70120F2E715
:100F9800FFB7FFFF70B584B0040002A9154A13001B
:100FA80005CB05C16A4603CB03C2636E002B06D18D
:100FB80001336A22A352023AA35204B070BD2268D8
:100FC80095686D0E07231D409268520F134002AEBC
:100FD800F05CC0006A46D15CFFF718F96A23E0525A
:100FE800705DC0006B46595DFFF710F96823E05249
:100FF800E3E7C046EC1B000870B57C23C35C012BFB
:1010080015D07C24012606558025242343510268E7
:1010180013681168B1431160064A13400022426602
:1010280001680B60202343510255002070BD022047
:10103800FCE7C046FFFFFFDFF8B504007C23C35C74
:10104800012B1BD07C250123435580262422825165
:101058000268176810689843106022689368DB007C
:10106800DB080B4393602000FFF794FF23681F60A1
:101078002023A351002363550020F8BD0220FCE77C
:10108800F8B504007C23C25C012A1BD07C257B3B7D
:1010980043558026242282510268176810689843B5
:1010A800106022689368084803400B43936020004F
:1010B800FFF770FF23681F602023A35100236355A7
:1010C8000020F8BD0220FCE7FFFFFFF170B582B0F9
:1010D800041E00D12CE20368DB0739D5C14A9168A8
:1010E80038230B40D16803220A40102B26D0082B46
:1010F80026D063688022520293427FD0A022D20277
:10110800934200D181E0B74B1A68B7490A401A6088
:101118001A68B6490A401A606368002B00D180E05B
:1011280000F0F0FC0500AF4B1B689B0310D400F0E7
:10113800E9FC401B6428F6D90320FAE1032AD6D13A
:10114800A84B1B689B0303D56368002B00D1F2E111
:1011580023689B0731D5A34A936838210B40D1688F
:1011680003220A40102B6AD0002B6BD19D4A1268CB
:10117800520503D5E268002A00D1DEE199484268A9
:101188009B490A40616909020A434260002B0DD15C
:10119800036898490B4021690B4303600368DB0A25
:1011A80007221A40944BD340944A1360944B186812
:1011B80000F05CFC002800D0C1E123681B0700D4C4
:1011C80081E0884B9A6838231340182B73D0A369A1
:1011D800002B00D1B4E0834A136E01210B43136640
:1011E80000F090FC05007F4B1B6E9B076BD400F052
:1011F80089FC401B0228F6D903209AE1794A116834
:1012080080235B020B43136086E7764B19688022C4
:10121800D2020A431A601968802252020A431A60ED
:101228007AE700F06FFC05006E4B1B689B038FD5B7
:1012380000F068FC401B6428F6D9032079E1022AF3
:1012480092D193E7E368002B22D0664A1368694974
:101258000B4021690B431360116880235B000B432B
:10126800136000F04FFC05005E4B1B685B0506D45D
:1012780000F048FC401B0228F6D9032059E15949DF
:101288004B685B4A13406269120213434B6094E750
:10129800544A13685B490B40136000F033FC0500A7
:1012A800504B1B685B0588D500F02CFC401B0228BE
:1012B800F6D903203DE14B4B1B6E9B0703D5A36971
:1012C800002B00D13DE123685B0700D4A2E0454B29
:1012D8009A6838231340202B45D0424BDB6BDB0048
:1012E8004AD4404AD16B802040050143D163D36B77
:1012F80003400193019B0125434B1B68DB053DD54A
:10130800A368012B4ED0052B52D0364BDA6D012144
:101318008A43DA65DA6D03318A43DA65A368002BFC
:1013280050D000F0EFFB06002E4BDB6D9B076FD40F
:1013380000F0E8FB801B354B9842F5D90320F8E014
:10134800284A136E01218B43136600F0DBFB05006E
:10135800244B1B6E9B07B6D500F0D4FB401B02281C
:10136800F6D90320E5E01F4BDB6D9B0752D5A36838
:10137800002B4FD10120DCE00025BDE7224A11688F
:1013880080235B000B43136000F0BCFB06001E4B80
:101398001B68DB05B4D400F0B5FB801B0228F6D926
:1013A8000320C6E00F4AD36D01210B43D365B5E78F
:1013B8000C4BDA6D04210A43DA65DA6D03390A4306
:1013C800DA65ABE700F09EFB0600064BDB6D9B077A
:1013D8001ED500F097FB801B0C4B9842F5D90320D3
:1013E800A7E0C04600100240FFFFFEFFFFFFFBFF23
:1013F800FF80FFFFFFC7FFFF0024F4000800002064
:1014080004000020FFFEFFFF00700040881300006A
:10141800012D26D0E369002B00D194E0514A916850
:1014280038220A40102A61D0022B20D04D4B1A686E
:101438004D490A401A60DA6803218A43DA60DA689B
:101448004A490A40DA6000F05DFB0400454B1B681E
:101458009B0149D500F056FB001B0228F6D9032052
:1014680067E0404AD36B42490B40D363D2E73D4A19
:1014780013683D490B40136000F044FB0500394BED
:101488001B689B0106D500F03DFB401B0228F6D9DE
:1014980003204EE0334AD36836491940236A606A0C
:1014A8000343A06A00020343E06A0343206B03433B
:1014B8000B43D360116880235B040B431360D1682E
:1014C80080235B050B43D36000F01CFB0400254B15
:1014D8001B689B0106D400F015FB001B0228F6D9F7
:1014E800032026E0002024E0002022E0012B2CD05D
:1014F8001C4BDA6803231340216A8B4227D17023DF
:101508001340616A8B4224D1FE21C9011140A36AAC
:101518001B0299421FD1F8239B031340E16A8B42B7
:101528001BD1520F5207236B9A4218D1002000E0BA
:10153800012002B070BD0120FBE70120F9E701207E
:10154800F7E70120F5E70020F3E70120F1E70120A4
:10155800EFE70120EDE70120EBE70120E9E70120B3
:10156800E7E7C04600100240FFFFFFFEFFFFFEEF67
:10157800FFFFFFEF8C80C11F10B52A4B9B683822F4
:101588001A4207D1274B1A68D20A07231340264864
:10159800D84010BD234B9A6838231340082B3BD002
:1015A800204B9A6838231340102B0DD01D4B9A6896
:1015B80038231340202B31D01A4B9A683823134014
:1015C800182B26D00020E4E7164AD1680D3B0B40C3
:1015D800D2681209072111400131032B0FD012489C
:1015E800FEF78AFD0F4BDA68120A7F23134058432F
:1015F8000C4BD968490F0131FEF77EFDC9E70B484E
:10160800FEF77AFD074BDA68120A7F231340584326
:10161800EEE7FA20C001BCE70448BAE780200002E0
:10162800B7E7C046001002400024F40000127A0018
:1016380070B504000D00002800D1AAE0574B1A68C5
:10164800072313408B4221D323689A070ED55B07E3
:1016580005D5534A9168E023DB010B439360504A58
:10166800936850490B40A1680B4393602368DB07DC
:1016780054D56368012B20D0022B3BD0002B3FD1DF
:10168800474A126852051CD401206AE0434A13688D
:1016980007218B432B43136000F034FA06003F4BBD
:1016A8001A6807231340AB42CED000F02BFA801BF8
:1016B8003D4B9842F3D9032053E0394A126892030C
:1016C80069D537498A680720824313438B6000F045
:1016D80019FA0600324B9B6838221A406368DB000F
:1016E8009A421BD000F00EFA801B2F4B9842F1D97A
:1016F800032036E02A4A12689201E2D4012030E041
:10170800032B05D0264AD26D9207DAD4012028E0AF
:10171800234A126E9207D4D4012022E01F4B1A6884
:1017280007231340AB421DD823685B0706D51C4A24
:1017380093681E490B40E1680B439360FFF71CFF59
:10174800174B9A68120A0F2313409B00184A9A589D
:101758001F231340D840174B1860174B186800F028
:1017680085F970BD0D4A136807218B432B4313601D
:1017780000F0C8F90600094B1A6807231340AB426A
:10178800D2D000F0BFF9801B074B9842F3D9032051
:10179800E7E70120E5E70120E3E7C0460020024033
:1017A80000100240FFF0FFFF88130000FF8FFFFFCB
:1017B800FC1B00080800002004000020014B1868EA
:1017C8007047C0460800002010B5FFF7F7FF064B2A
:1017D8009A68120B072313409B00044A9A581F2348
:1017E8001340D84010BDC046001002403C1C000801
:1017F800F0B583B0040003689B0360D5574BDB6BDF
:10180800DB001ED4554AD16B802040050143D163CB
:10181800D36B03400193019B0126514A1168802331
:101828005B000B43136000F06DF905004C4B1B681F
:10183800DB0508D400F066F9401B0228F6D9032519
:1018480002E00026E9E70025002D21D1434BDB6D9E
:10185800C0229200134010D0A2699A420DD03F4A8C
:10186800D36D40490B40D06D802149020143D165B9
:10187800D16D3D480140D165D365DB0710D4002DFB
:1018880006D1364AD36D37490B40A1690B43D3655E
:10189800012E15D1314AD36B34490B40D3630FE085
:1018A80000F030F907002D4BDB6D9B07E7D400F003
:1018B80029F9C01B2E4B9842F5D90325DFE70025EF
:1018C8002368DB0706D5254A536D03218B436168DE
:1018D8000B43536523689B0706D5204A536D0C219B
:1018E8008B43A1680B43536523685B0606D51B4AE7
:1018F800536D20490B40E1680B43536523685B0433
:101908000BD5164A536D9B009B0861690B435365C1
:101918008023DB0562699A4211D023681B050BD529
:101928000E4A536D14490B4021690B4353652269D4
:101938008023DB019A4209D0280003B0F0BD074A92
:10194800D16880235B020B43D360E6E7034AD16882
:1019580080235B020B43D360EEE7C04600100240D1
:1019680000700040FFFCFFFFFFFFFEFFFFFFFFEFDF
:1019780088130000FFCFFFFFFF3FFFFF10B5104A9D
:10198800136810490B400343136080239B0098425F
:1019980001D0002010BD0C4B1A6853009B1858004A
:1019A8000A49FEF7A9FB0130054B5B695B0503D5C6
:1019B800002803D00138F7E70020EBE70320E9E728
:1019C80000700040FFF9FFFF0800002040420F00B0
:1019D80070B5002811DB8308144DC0339B005C5997
:1019E80003221040C000FC3216008640B44389012F
:1019F8000A40824014435C5170BDC0B20F230340BB
:101A0800083B9B0806339B00094A944663445D687B
:101A180003242040C000FF2214008440A54389010C
:101A28000A4082402A435A60E6E7C04600E100E0E7
:101A380000ED00E001380A4B98420FD8094A50607F
:101A48000948036A1B021B0AC02109060B430362EB
:101A58000023936007331360002070470120FCE7E0
:101A6800FFFFFF0010E000E000ED00E010B504000B
:101A7800114B1968002901D1012010BDFA208000FE
:101A8800FEF73AFB01000D4B1868FEF735FBFFF730
:101A9800D1FF00280DD1032C01D90120EDE7013039
:101AA800002221004042FFF793FF054B1C600020F5
:101AB800E3E70120E1E7C04600000020080000201D
:101AC8000400002010B5084A116880235B000B430E
:101AD80013600020FFF7CAFF041E02D00124200073
:101AE80010BDFEF74DFDFAE700200240034A1368D7
:101AF800034909685B1813607047C046B4000020AA
:101B080000000020014B18687047C046B400002050
:101B1800024B802212059A607047C04600ED00E033
:101B28000D488546002103E00C4B5B5843500431B7
:101B38000B480C4B42189A42F6D30B4A02E000239A
:101B480013600432094B9A42F9D3FFF7E1FF00F022
:101B580011F8FEF779FCFEE700900020641C0008ED
:101B6800000000200C0000200C000020B80000201D
:101B7800FEE7000070B500260C4D0D4C641BA41048
:101B8800A64209D1002600F021F80A4D0A4C641B30
:101B9800A410A64205D170BDB300EB589847013692
:101BA800EEE7B300EB5898470136F2E75C1C0008F3
:101BB8005C1C00085C1C0008601C0008030012186C
:101BC800934200D1704719700133F9E7F8B5C04660
:101BD800F8BC08BC9E467047F8B5C046F8BC08BCBF
:041BE8009E4670475E
:101BEC0001010103070100000804020408010101BE
:101BFC0000000000000000000000000000000000D9
:101C0C0000000000000000000000000000000000C8
:101C1C0001000000020000000300000004000000AE
:101C2C00060000000700000008000000090000008A
:101C3C000000000000000000000000000000000098
:101C4C00010000000200000003000000040000007E
:041C5C00E10000089B
:041C6000B9000008BF
:0C1C640001000000040000000024F40057
:0400000508001B29AB
:00000001FF
